{
  "_format": "hh-sol-artifact-1",
  "contractName": "Lending",
  "sourceName": "contracts/Lending.sol",
  "abi": [
    {
      "inputs": [
        {
          "internalType": "uint256",
          "name": "_repayTime",
          "type": "uint256"
        },
        {
          "internalType": "uint256",
          "name": "_interest",
          "type": "uint256"
        }
      ],
      "stateMutability": "payable",
      "type": "constructor"
    },
    {
      "inputs": [],
      "name": "availableFunds",
      "outputs": [
        {
          "internalType": "uint256",
          "name": "",
          "type": "uint256"
        }
      ],
      "stateMutability": "view",
      "type": "function"
    },
    {
      "inputs": [
        {
          "internalType": "uint256",
          "name": "_amount",
          "type": "uint256"
        }
      ],
      "name": "borrow",
      "outputs": [],
      "stateMutability": "nonpayable",
      "type": "function"
    },
    {
      "inputs": [],
      "name": "borrowed",
      "outputs": [
        {
          "internalType": "uint256",
          "name": "",
          "type": "uint256"
        }
      ],
      "stateMutability": "view",
      "type": "function"
    },
    {
      "inputs": [],
      "name": "deposit",
      "outputs": [],
      "stateMutability": "payable",
      "type": "function"
    },
    {
      "inputs": [],
      "name": "depositor",
      "outputs": [
        {
          "internalType": "address",
          "name": "",
          "type": "address"
        }
      ],
      "stateMutability": "view",
      "type": "function"
    },
    {
      "inputs": [],
      "name": "interest",
      "outputs": [
        {
          "internalType": "uint256",
          "name": "",
          "type": "uint256"
        }
      ],
      "stateMutability": "view",
      "type": "function"
    },
    {
      "inputs": [],
      "name": "isLoanActive",
      "outputs": [
        {
          "internalType": "bool",
          "name": "",
          "type": "bool"
        }
      ],
      "stateMutability": "view",
      "type": "function"
    },
    {
      "inputs": [],
      "name": "loanStartTime",
      "outputs": [
        {
          "internalType": "uint256",
          "name": "",
          "type": "uint256"
        }
      ],
      "stateMutability": "view",
      "type": "function"
    },
    {
      "inputs": [],
      "name": "repay",
      "outputs": [],
      "stateMutability": "payable",
      "type": "function"
    },
    {
      "inputs": [],
      "name": "repayTime",
      "outputs": [
        {
          "internalType": "uint256",
          "name": "",
          "type": "uint256"
        }
      ],
      "stateMutability": "view",
      "type": "function"
    },
    {
      "inputs": [],
      "name": "repayed",
      "outputs": [
        {
          "internalType": "uint256",
          "name": "",
          "type": "uint256"
        }
      ],
      "stateMutability": "view",
      "type": "function"
    }
  ],
  "bytecode": "0x6080604052600a600255604051610e36380380610e36833981810160405281019061002a919061016f565b816003819055508060028190555033600160006101000a81548173ffffffffffffffffffffffffffffffffffffffff021916908373ffffffffffffffffffffffffffffffffffffffff16021790555061008761008e60201b60201c565b505061028f565b600160009054906101000a900473ffffffffffffffffffffffffffffffffffffffff1673ffffffffffffffffffffffffffffffffffffffff163373ffffffffffffffffffffffffffffffffffffffff161461011e576040517f08c379a00000000000000000000000000000000000000000000000000000000081526004016101159061020c565b60405180910390fd5b3460005461012c919061025b565b600081905550565b600080fd5b6000819050919050565b61014c81610139565b811461015757600080fd5b50565b60008151905061016981610143565b92915050565b6000806040838503121561018657610185610134565b5b60006101948582860161015a565b92505060206101a58582860161015a565b9150509250929050565b600082825260208201905092915050565b7f596f75206d75737420626520746865206465706f7369746f7200000000000000600082015250565b60006101f66019836101af565b9150610201826101c0565b602082019050919050565b60006020820190508181036000830152610225816101e9565b9050919050565b7f4e487b7100000000000000000000000000000000000000000000000000000000600052601160045260246000fd5b600061026682610139565b915061027183610139565b92508282019050808211156102895761028861022c565b5b92915050565b610b988061029e6000396000f3fe60806040526004361061009c5760003560e01c80638d0f3e21116100645780638d0f3e2114610157578063c392f76614610182578063c5ebeaec146101ad578063c7c4ff46146101d6578063d0e30db014610201578063f70431641461020b5761009c565b80632efb15de146100a1578063402d8883146100cc57806346fcff4c146100d657806369609c4214610101578063850c4ca01461012c575b600080fd5b3480156100ad57600080fd5b506100b6610236565b6040516100c391906106cd565b60405180910390f35b6100d4610249565b005b3480156100e257600080fd5b506100eb61044a565b6040516100f89190610701565b60405180910390f35b34801561010d57600080fd5b50610116610450565b6040516101239190610701565b60405180910390f35b34801561013857600080fd5b50610141610456565b60405161014e9190610701565b60405180910390f35b34801561016357600080fd5b5061016c61045c565b6040516101799190610701565b60405180910390f35b34801561018e57600080fd5b50610197610462565b6040516101a49190610701565b60405180910390f35b3480156101b957600080fd5b506101d460048036038101906101cf919061074d565b610468565b005b3480156101e257600080fd5b506101eb6105e0565b6040516101f891906107bb565b60405180910390f35b610209610606565b005b34801561021757600080fd5b506102206106ac565b60405161022d9190610701565b60405180910390f35b600760009054906101000a900460ff1681565b600760009054906101000a900460ff16610298576040517f08c379a000000000000000000000000000000000000000000000000000000000815260040161028f90610833565b60405180910390fd5b600060646002546006546102ac9190610882565b6102b691906108f3565b6006546102c39190610924565b90506000600454826102d59190610958565b905060008134111561030f5781346102ed9190610958565b90506000600760006101000a81548160ff02191690831515021790555061034c565b813403610336576000600760006101000a81548160ff02191690831515021790555061034b565b346004546103449190610924565b6004819055505b5b600160009054906101000a900473ffffffffffffffffffffffffffffffffffffffff1673ffffffffffffffffffffffffffffffffffffffff166108fc82346103949190610958565b9081150290604051600060405180830381858888f193505050501580156103bf573d6000803e3d6000fd5b506000811115610411573373ffffffffffffffffffffffffffffffffffffffff166108fc829081150290604051600060405180830381858888f1935050505015801561040f573d6000803e3d6000fd5b505b600760009054906101000a900460ff1661044557600060068190555060008081905550600060048190555060006005819055505b505050565b60005481565b60065481565b60055481565b60045481565b60025481565b600081116104ab576040517f08c379a00000000000000000000000000000000000000000000000000000000081526004016104a2906109d8565b60405180910390fd5b8060005410156104f0576040517f08c379a00000000000000000000000000000000000000000000000000000000081526004016104e790610a44565b60405180910390fd5b6003546005546105009190610924565b4211610541576040517f08c379a000000000000000000000000000000000000000000000000000000000815260040161053890610ad6565b60405180910390fd5b60006006540361055357426005819055505b806000546105619190610958565b600081905550806006546105759190610924565b6006819055506001600760006101000a81548160ff0219169083151502179055503373ffffffffffffffffffffffffffffffffffffffff166108fc829081150290604051600060405180830381858888f193505050501580156105dc573d6000803e3d6000fd5b5050565b600160009054906101000a900473ffffffffffffffffffffffffffffffffffffffff1681565b600160009054906101000a900473ffffffffffffffffffffffffffffffffffffffff1673ffffffffffffffffffffffffffffffffffffffff163373ffffffffffffffffffffffffffffffffffffffff1614610696576040517f08c379a000000000000000000000000000000000000000000000000000000000815260040161068d90610b42565b60405180910390fd5b346000546106a49190610924565b600081905550565b60035481565b60008115159050919050565b6106c7816106b2565b82525050565b60006020820190506106e260008301846106be565b92915050565b6000819050919050565b6106fb816106e8565b82525050565b600060208201905061071660008301846106f2565b92915050565b600080fd5b61072a816106e8565b811461073557600080fd5b50565b60008135905061074781610721565b92915050565b6000602082840312156107635761076261071c565b5b600061077184828501610738565b91505092915050565b600073ffffffffffffffffffffffffffffffffffffffff82169050919050565b60006107a58261077a565b9050919050565b6107b58161079a565b82525050565b60006020820190506107d060008301846107ac565b92915050565b600082825260208201905092915050565b7f4d75737420626520616e20616374697665206c6f616e00000000000000000000600082015250565b600061081d6016836107d6565b9150610828826107e7565b602082019050919050565b6000602082019050818103600083015261084c81610810565b9050919050565b7f4e487b7100000000000000000000000000000000000000000000000000000000600052601160045260246000fd5b600061088d826106e8565b9150610898836106e8565b92508282026108a6816106e8565b915082820484148315176108bd576108bc610853565b5b5092915050565b7f4e487b7100000000000000000000000000000000000000000000000000000000600052601260045260246000fd5b60006108fe826106e8565b9150610909836106e8565b925082610919576109186108c4565b5b828204905092915050565b600061092f826106e8565b915061093a836106e8565b925082820190508082111561095257610951610853565b5b92915050565b6000610963826106e8565b915061096e836106e8565b925082820390508181111561098657610985610853565b5b92915050565b7f4d75737420626f72726f7720736f6d657468696e670000000000000000000000600082015250565b60006109c26015836107d6565b91506109cd8261098c565b602082019050919050565b600060208201905081810360008301526109f1816109b5565b9050919050565b7f4e6f2066756e647320617661696c61626c650000000000000000000000000000600082015250565b6000610a2e6012836107d6565b9150610a39826109f8565b602082019050919050565b60006020820190508181036000830152610a5d81610a21565b9050919050565b7f4c6f616e2065787069726564206d75737420626520726570617965642066697260008201527f7374000000000000000000000000000000000000000000000000000000000000602082015250565b6000610ac06022836107d6565b9150610acb82610a64565b604082019050919050565b60006020820190508181036000830152610aef81610ab3565b9050919050565b7f596f75206d75737420626520746865206465706f7369746f7200000000000000600082015250565b6000610b2c6019836107d6565b9150610b3782610af6565b602082019050919050565b60006020820190508181036000830152610b5b81610b1f565b905091905056fea2646970667358221220c1e4f22c2c93c87a71b32ef72e6ef310806420e3b08ddc234ea41abea73853cb64736f6c634300081c0033",
  "linkReferences": {},
  "deployedLinkReferences": {}
}